{
  "contractName": "Poll",
  "abi": [
    {
      "constant": true,
      "inputs": [],
      "name": "electionName",
      "outputs": [
        {
          "name": "",
          "type": "string"
        }
      ],
      "payable": false,
      "stateMutability": "view",
      "type": "function"
    },
    {
      "anonymous": false,
      "inputs": [
        {
          "indexed": false,
          "name": "candidateName",
          "type": "string"
        }
      ],
      "name": "ShowEnrolledCandidate",
      "type": "event"
    },
    {
      "anonymous": false,
      "inputs": [
        {
          "indexed": false,
          "name": "name",
          "type": "string"
        },
        {
          "indexed": false,
          "name": "voteCount",
          "type": "uint256"
        }
      ],
      "name": "ElectionResult",
      "type": "event"
    },
    {
      "anonymous": false,
      "inputs": [
        {
          "indexed": false,
          "name": "msg",
          "type": "string"
        }
      ],
      "name": "Alert",
      "type": "event"
    },
    {
      "constant": false,
      "inputs": [
        {
          "name": "_electionName",
          "type": "string"
        }
      ],
      "name": "Election",
      "outputs": [],
      "payable": false,
      "stateMutability": "nonpayable",
      "type": "function"
    },
    {
      "constant": false,
      "inputs": [
        {
          "name": "_candidateName",
          "type": "string"
        }
      ],
      "name": "enrollCandidate",
      "outputs": [],
      "payable": false,
      "stateMutability": "nonpayable",
      "type": "function"
    },
    {
      "constant": false,
      "inputs": [],
      "name": "showCandidates",
      "outputs": [],
      "payable": false,
      "stateMutability": "nonpayable",
      "type": "function"
    },
    {
      "constant": false,
      "inputs": [],
      "name": "initiateElection",
      "outputs": [],
      "payable": false,
      "stateMutability": "nonpayable",
      "type": "function"
    },
    {
      "constant": false,
      "inputs": [],
      "name": "endElection",
      "outputs": [],
      "payable": false,
      "stateMutability": "nonpayable",
      "type": "function"
    },
    {
      "constant": false,
      "inputs": [
        {
          "name": "voteIndex",
          "type": "uint256"
        }
      ],
      "name": "vote",
      "outputs": [],
      "payable": false,
      "stateMutability": "nonpayable",
      "type": "function"
    }
  ],
  "bytecode": "0x6060604052341561000f57600080fd5b6110fc8061001e6000396000f300606060405260043610610083576000357c0100000000000000000000000000000000000000000000000000000000900463ffffffff1680630121b93f146100885780630ff9e259146100ab5780631d7b90e0146100c05780634a4c8d7e146100d557806359f784681461013257806385e8e7a714610147578063f34f5f45146101d5575b600080fd5b341561009357600080fd5b6100a96004808035906020019091905050610232565b005b34156100b657600080fd5b6100be610392565b005b34156100cb57600080fd5b6100d36104fd565b005b34156100e057600080fd5b610130600480803590602001908201803590602001908080601f01602080910402602001604051908101604052809392919081815260200183838082843782019150505050505091905050610880565b005b341561013d57600080fd5b6101456109d0565b005b341561015257600080fd5b61015a610be0565b6040518080602001828103825283818151815260200191508051906020019080838360005b8381101561019a57808201518184015260208101905061017f565b50505050905090810190601f1680156101c75780820380516001836020036101000a031916815260200191505b509250505060405180910390f35b34156101e057600080fd5b610230600480803590602001908201803590602001908080601f01602080910402602001604051908101604052809392919081815260200183838082843782019150505050505091905050610c7e565b005b600460009054906101000a900460ff16151561024d57600080fd5b600360003373ffffffffffffffffffffffffffffffffffffffff1673ffffffffffffffffffffffffffffffffffffffff16815260200190815260200160002060000160009054906101000a900460ff161515156102a957600080fd5b60016002805490500381111515156102bd57fe5b6001600360003373ffffffffffffffffffffffffffffffffffffffff1673ffffffffffffffffffffffffffffffffffffffff16815260200190815260200160002060000160006101000a81548160ff02191690831515021790555080600360003373ffffffffffffffffffffffffffffffffffffffff1673ffffffffffffffffffffffffffffffffffffffff1681526020019081526020016000206001018190555060028181548110151561036e57fe5b90600052602060002090600202016001016000815480929190600101919050555050565b3373ffffffffffffffffffffffffffffffffffffffff166000809054906101000a900473ffffffffffffffffffffffffffffffffffffffff1673ffffffffffffffffffffffffffffffffffffffff161415156103ed57600080fd5b3373ffffffffffffffffffffffffffffffffffffffff166000809054906101000a900473ffffffffffffffffffffffffffffffffffffffff1673ffffffffffffffffffffffffffffffffffffffff1614151561044857600080fd5b600460009054906101000a900460ff1615151561046457600080fd5b600060028054905011151561047857600080fd5b6001600460006101000a81548160ff0219169083151502179055507fb42f912d2a6c6c7da83228b8b84b12578ffa4267ec2980110bcf1f59c083298660405180806020018281038252601c8152602001807f456c656374696f6e20686173206265656e20696e697469617465642e0000000081525060200191505060405180910390a1565b60008060028054905011151561051257600080fd5b600090505b6002805490508110156107c357600081146106135761060e6040805190810160405280600281526020017f2c2000000000000000000000000000000000000000000000000000000000000081525060058054600181600116156101000203166002900480601f0160208091040260200160405190810160405280929190818152602001828054600181600116156101000203166002900480156105fb5780601f106105d0576101008083540402835291602001916105fb565b820191906000526020600020905b8154815290600101906020018083116105de57829003601f168201915b5050505050610cd890919063ffffffff16565b610625565b60206040519081016040528060008152505b6005908051906020019061063a929190610ed2565b506107a060028281548110151561064d57fe5b90600052602060002090600202016000018054600181600116156101000203166002900480601f0160208091040260200160405190810160405280929190818152602001828054600181600116156101000203166002900480156106f25780601f106106c7576101008083540402835291602001916106f2565b820191906000526020600020905b8154815290600101906020018083116106d557829003601f168201915b505050505060058054600181600116156101000203166002900480601f01602080910402602001604051908101604052809291908181526020018280546001816001161561010002031660029004801561078d5780601f106107625761010080835404028352916020019161078d565b820191906000526020600020905b81548152906001019060200180831161077057829003601f168201915b5050505050610cd890919063ffffffff16565b600590805190602001906107b5929190610ed2565b508080600101915050610517565b7f8713b2de1173622872c12893786438c673d305fb013ccd50bf90683362d8a4426005604051808060200182810382528381815460018160011615610100020316600290048152602001915080546001816001161561010002031660029004801561086f5780601f106108445761010080835404028352916020019161086f565b820191906000526020600020905b81548152906001019060200180831161085257829003601f168201915b50509250505060405180910390a150565b3373ffffffffffffffffffffffffffffffffffffffff166000809054906101000a900473ffffffffffffffffffffffffffffffffffffffff1673ffffffffffffffffffffffffffffffffffffffff161415156108db57600080fd5b3373ffffffffffffffffffffffffffffffffffffffff166000809054906101000a900473ffffffffffffffffffffffffffffffffffffffff1673ffffffffffffffffffffffffffffffffffffffff1614151561093657600080fd5b600460009054906101000a900460ff1615151561095257600080fd5b61095b81610eb8565b15151561096457fe5b600280548060010182816109789190610f52565b9160005260206000209060020201600060408051908101604052808581526020016000815250909190915060008201518160000190805190602001906109bf929190610f84565b506020820151816001015550505050565b60003373ffffffffffffffffffffffffffffffffffffffff166000809054906101000a900473ffffffffffffffffffffffffffffffffffffffff1673ffffffffffffffffffffffffffffffffffffffff16141515610a2d57600080fd5b3373ffffffffffffffffffffffffffffffffffffffff166000809054906101000a900473ffffffffffffffffffffffffffffffffffffffff1673ffffffffffffffffffffffffffffffffffffffff16141515610a8857600080fd5b600460009054906101000a900460ff161515610aa357600080fd5b6000600460006101000a81548160ff021916908315150217905550600090505b600280549050811015610bdd577f156b5ffaa1a96772b4d324b6a0492ba5c51abe8a2818c38a0d409faddb63578c600282815481101515610b0057fe5b9060005260206000209060020201600001600283815481101515610b2057fe5b9060005260206000209060020201600101546040518080602001838152602001828103825284818154600181600116156101000203166002900481526020019150805460018160011615610100020316600290048015610bc15780601f10610b9657610100808354040283529160200191610bc1565b820191906000526020600020905b815481529060010190602001808311610ba457829003601f168201915b5050935050505060405180910390a18080600101915050610ac3565b50565b60018054600181600116156101000203166002900480601f016020809104026020016040519081016040528092919081815260200182805460018160011615610100020316600290048015610c765780601f10610c4b57610100808354040283529160200191610c76565b820191906000526020600020905b815481529060010190602001808311610c5957829003601f168201915b505050505081565b336000806101000a81548173ffffffffffffffffffffffffffffffffffffffff021916908373ffffffffffffffffffffffffffffffffffffffff1602179055508060019080519060200190610cd4929190610ed2565b5050565b610ce0611004565b610ce8611018565b610cf0611018565b610cf8611004565b610d00611018565b6000808895508794508451865101604051805910610d1b5750595b9080825280601f01601f19166020018201604052509350839250600091505b8551821015610def578582815181101515610d5157fe5b9060200101517f010000000000000000000000000000000000000000000000000000000000000090047f0100000000000000000000000000000000000000000000000000000000000000028382815181101515610daa57fe5b9060200101907effffffffffffffffffffffffffffffffffffffffffffffffffffffffffffff1916908160001a90535080806001019150508180600101925050610d3a565b600091505b8451821015610ea9578482815181101515610e0b57fe5b9060200101517f010000000000000000000000000000000000000000000000000000000000000090047f0100000000000000000000000000000000000000000000000000000000000000028382815181101515610e6457fe5b9060200101907effffffffffffffffffffffffffffffffffffffffffffffffffffffffffffff1916908160001a90535080806001019150508180600101925050610df4565b82965050505050505092915050565b6000610ec2611018565b8290506000815114915050919050565b828054600181600116156101000203166002900490600052602060002090601f016020900481019282601f10610f1357805160ff1916838001178555610f41565b82800160010185558215610f41579182015b82811115610f40578251825591602001919060010190610f25565b5b509050610f4e919061102c565b5090565b815481835581811511610f7f57600202816002028360005260206000209182019101610f7e9190611051565b5b505050565b828054600181600116156101000203166002900490600052602060002090601f016020900481019282601f10610fc557805160ff1916838001178555610ff3565b82800160010185558215610ff3579182015b82811115610ff2578251825591602001919060010190610fd7565b5b509050611000919061102c565b5090565b602060405190810160405280600081525090565b602060405190810160405280600081525090565b61104e91905b8082111561104a576000816000905550600101611032565b5090565b90565b61108591905b8082111561108157600080820160006110709190611088565b600182016000905550600201611057565b5090565b90565b50805460018160011615610100020316600290046000825580601f106110ae57506110cd565b601f0160209004906000526020600020908101906110cc919061102c565b5b505600a165627a7a72305820de5cb874fa50d3e1b4db938c6ec858d7c141a15999306d4a9597b734616ce8190029",
  "source": "pragma solidity ^0.4.18;\r\n\r\nimport \"./Strings.sol\";\r\n\r\ncontract Poll {\r\n\r\n using Strings for string;\r\n\r\n    address private chairman;\r\n    string public electionName;\r\n    Candidate[] private candidatesList; \r\n    mapping(address=>Voter) private voters;\r\n    bool isElectionOngoing;\r\n    \r\n    string enrolledCandidates;\r\n    \r\n    event ShowEnrolledCandidate(string candidateName);\r\n    event ElectionResult(string name, uint voteCount);\r\n    event Alert(string msg);\r\n\r\n    struct Candidate {\r\n        \r\n        string candidateName;\r\n        uint voteCount;\r\n        \r\n    }\r\n    \r\n    struct Voter {\r\n        \r\n        bool voted;\r\n        uint voteIndex;\r\n\r\n    }\r\n    \r\n    \r\n    /**\r\n        Owner Function constraint:\r\n        This function will only be accessible to the Chairman\r\n    */\r\n    modifier restrictedAccess {\r\n        \r\n        // Check if current user is a chairman otherwise show error\r\n        require(chairman == msg.sender);\r\n        require(chairman == msg.sender);\r\n        // to make sure require constraint is executed before execution of the function\r\n        _; \r\n        \r\n    }\r\n    \r\n    /**\r\n        @dev Election constructor\r\n        @param _electionName Name of the election\r\n    */\r\n    function Election(string _electionName) public {\r\n        \r\n        chairman = msg.sender;\r\n        electionName = _electionName;\r\n        \r\n    }\r\n    \r\n    /**\r\n        @dev Add a new candidate\r\n        @param _candidateName name of the candidate\r\n\r\n    */\r\n    function enrollCandidate(string _candidateName) public restrictedAccess {\r\n        \r\n        require(!isElectionOngoing);\r\n        assert(!_candidateName.isEmpty());\r\n        \r\n        // May need to place a check to see if candidate is already enrolled\r\n        candidatesList.push(Candidate(_candidateName,0));\r\n        \r\n    }\r\n    \r\n    /**\r\n        Display list of enrolled candidates. show an error message if there are no enrolled candidates\r\n    */\r\n    function showCandidates() public {\r\n        \r\n        require(candidatesList.length > 0);\r\n        \r\n        \r\n        for (uint i = 0 ; i < candidatesList.length ; i++) {\r\n            \r\n            enrolledCandidates = i == 0 ? \"\" : enrolledCandidates.concat(\", \");        \r\n            enrolledCandidates = enrolledCandidates.concat(candidatesList[i].candidateName);    \r\n        \r\n        }\r\n        \r\n        ShowEnrolledCandidate(enrolledCandidates);\r\n        \r\n    }\r\n    \r\n    /**\r\n        @dev Initiate election if its not already\r\n    */\r\n    function initiateElection() public restrictedAccess {\r\n        \r\n        require(!isElectionOngoing);\r\n        require(candidatesList.length > 0);\r\n        \r\n        isElectionOngoing = true;\r\n        Alert(\"Election has been initiated.\");\r\n        \r\n    }\r\n    \r\n    /**\r\n        @dev Endelection and show results\r\n    */\r\n    function endElection() public restrictedAccess {\r\n        \r\n        require(isElectionOngoing);\r\n        \r\n        isElectionOngoing = false;\r\n\r\n        for (uint i = 0 ; i < candidatesList.length ; i++) {\r\n            \r\n            ElectionResult(candidatesList[i].candidateName, candidatesList[i].voteCount);\r\n            \r\n        }\r\n        \r\n    }\r\n    \r\n    /**\r\n        @dev Vote! Vote! Vote!\r\n        @param voteIndex of Candiate to Vote. starting with 0\r\n    */\r\n    function vote(uint voteIndex) public {\r\n        \r\n        require(isElectionOngoing);\r\n        require(!voters[msg.sender].voted);\r\n        assert(voteIndex <= candidatesList.length - 1);\r\n        \r\n        voters[msg.sender].voted = true;\r\n        voters[msg.sender].voteIndex = voteIndex;\r\n        \r\n        candidatesList[voteIndex].voteCount ++;\r\n        \r\n    }\r\n    \r\n\r\n}",
  "sourcePath": "F:\\BlockChain\\Solidity\\BunchOfSmartContracts\\polling\\contracts\\Poll.sol",
  "compiler": {
    "name": "solc",
    "version": "0.4.19+commit.c4cbbb05.Emscripten.clang"
  },
  "schemaVersion": "2.0.0",
  "updatedAt": "2018-03-07T11:28:36.782Z"
}